:100000000C94CF000C94F7000C94F7000C94F700BC
:100010000C94F7000C94F7000C94F7000C94F70084
:100020000C94F7000C94F7000C9436080C94B40868
:100030000C94F7000C94F7000C94F7000C94F70064
:100040000C94F7000C94F7000C94F7000C94F70054
:100050000C94F7000C94F7000C94F7000C94EC0748
:100060000C94F7000C940C0B0C94E60A0C94F7001B
:100070000C94F7000C94F7000C94F7000C94F70024
:100080000C94F7000C94F7000C94F7000C94F70014
:100090000C94F7000C94F7000C94F7000C94F70004
:1000A0000C94F7000C94F7000C94F700080B000276
:1000B0000202000009040000010202000005240001
:1000C0001001052401010104240206052406000193
:1000D0000705810310004009040100020A00000026
:1000E00007050202400000070583024000000403E8
:1000F000090412010002EF0201404123398000018E
:100100000102030141726475696E6F204C4C43001B
:100110004D454D4900000000002300260029002C19
:10012000002F000000000200090F0000030401007E
:100130000C000000000000000000000000000000B3
:10014000000000000000250028002B002E003100D8
:1001500000000000240027002A002D0030000404C5
:100160000404040304050202020204030202020260
:100170000606060606060404020202040404080237
:10018000011040804010204080408008020401801F
:100190004020100201108010204040203E0B11240E
:1001A0001FBECFEFDAE0DEBFCDBF11E0A0E0B1E0CF
:1001B000ECE0F8E202C005900D92AE34B107D9F739
:1001C00024E0AEE4B1E001C01D92AF3AB207E1F71E
:1001D00010E0CFECD0E004C02197FE010E94EA13AA
:1001E000CE3CD107C9F70E94F80B0C9404140C9470
:1001F000000090E0FC01E358FE4F2491825A9E4F8C
:10020000FC018491882399F090E0880F991FFC01EC
:10021000E05BFE4FA591B491FC01EE5BFE4F859132
:1002200094918FB7F894EC91E22BEC938FBF0895E3
:10023000CF93DF931F92CDB7DEB76983DC01ED91D9
:10024000FC910280F381E02D41E050E0BE016F5F40
:100250007F4F09950F90DF91CF91089581508F3096
:1002600008F047C0E82FF0E0E85CFE4F0C94EA137A
:100270005501590147014D01510179017901790178
:100280005C01620166016A0170017901740180916B
:1002900080008F77809380000895809180008F7D0B
:1002A000F9CF80918000877FF5CF84B58F7784BDAB
:1002B000089584B58F7DFBCF809190008F778093D8
:1002C00090000895809190008F7DF9CF80919000EB
:1002D000877FF5CF8091C0008F778093C00008950D
:1002E0008091C0008F7DF9CF8091C200877F80937D
:1002F000C2000895CF93DF93282F30E0F901ED5D20
:10030000FE4F8491F901E358FE4FD491F901E25A6E
:10031000FE4FC491CC23A1F081110E942E01EC2F3D
:10032000F0E0EE0FFF1FEB5EFE4FA591B491EC9154
:10033000ED2381E090E009F480E0DF91CF91089512
:1003400080E090E0FACF1F93CF93DF93282F30E027
:10035000F901ED5DFE4F8491F901E358FE4FD49110
:10036000F901E25AFE4FC491CC23A9F0162F811156
:100370000E942E01EC2FF0E0EE0FFF1FEE5BFE4F10
:10038000A591B4918FB7F894EC91111108C0D09554
:10039000DE23DC938FBFDF91CF911F910895DE2B79
:1003A000F8CF1F93CF93DF93182FEB010E94F90032
:1003B000209739F460E0812FDF91CF911F910C9449
:1003C000A301CF3FD10511F461E0F5CFE12FF0E0BB
:1003D000ED5DFE4FE491E150EF3008F07FC0F0E0BA
:1003E000EC50FE4F0C94EA1303020B0210021A02A7
:1003F00024026E026E026E022E02380242024C028B
:1004000059026E02610284B5806884BDC7BDDF9168
:10041000CF911F91089584B5806284BDC8BDF7CF88
:1004200080918000806880938000D0938900C09381
:100430008800EDCF80918000806280938000D0930F
:100440008B00C0938A00E3CF809180008860809306
:100450008000D0938D00C0938C00D9CF8091900004
:10046000806880939000D0939900C0939800CFCF7C
:1004700080919000806280939000D0939B00C09305
:100480009A00C5CF80919000886080939000D093AF
:100490009D00C0939C00BBCF8091C000806880937A
:1004A000C0008091C0008F7B8093C000C093CF00BC
:1004B000AECF8091C00080628093C000C093D00016
:1004C000A6CF8091C20088608093C2008091C20054
:1004D0008B7F8093C200C093D20099CFC038D105E2
:1004E0000CF072CF67CF3FB7F8948091A003909142
:1004F000A103A091A203B091A30326B5A89B05C0B8
:100500002F3F19F00196A11DB11D3FBFBA2FA92F92
:10051000982F8827BC01CD01620F711D811D911D8F
:1005200042E0660F771F881F991F4A95D1F70895FB
:100530008F929F92AF92BF92CF92DF92EF92FF92F3
:100540004B015C010E9473026B017C010E947302EB
:100550006C197D098E099F09683E734081059105DC
:10056000A8F321E0821A9108A108B10888EEC80E0C
:1005700083E0D81EE11CF11C81149104A104B10494
:1005800029F7FF90EF90DF90CF90BF90AF909F90B2
:100590008F9008952FB7F89460919C0370919D03FC
:1005A00080919E0390919F032FBF08950E94CA02DD
:1005B0006093B2037093B3038093B4039093B50335
:1005C00061E086E00E94A3010E9473026093AE0383
:1005D0007093AF038093B0039093B1032091AC0369
:1005E0003091AD032F5F3F4F3093AD032093AC03A9
:1005F000C90164E070E00E94D6138130910561F476
:1006000040E050E06FE773E44093A8035093A903E0
:100610006093AA037093AB032031310524F09093CB
:10062000AD038093AC0308950E94CA026093B203A5
:100630007093B3038093B4039093B50361E088E0B3
:100640000E94A3010E9473026093A4037093A50308
:100650008093A6039093A7032091AC033091AD0340
:100660002F5F3F4F3093AD032093AC03C90164E08B
:1006700070E00E94D6138130910561F440E050E0B3
:100680006FE773E44093A8035093A9036093AA0310
:100690007093AB032031310524F09093AD03809328
:1006A000AC0308958093E9008091F200882319F04B
:1006B0008AE38093E800089583E00C94520340910C
:1006C0005C0150915D0120915A0130915B0142170C
:1006D0005307B4F49091E8009570E1F39091E8002D
:1006E00092FD19C08093F10080915C0190915D01B1
:1006F00001968F739927892B19F48EEF8093E80068
:1007000080915C0190915D01019690935D018093D1
:100710005C0181E0089580E00895EF92FF920F93CD
:100720001F93CF93DF93F82E192FE62E042F81E02D
:10073000860F880F0E945F0383E00E945F03CF2D26
:10074000D12FEC0EFD2EF11CCE15DF05B9F007FF01
:1007500013C0FE0184910E945F03182F80E00E9465
:100760005F03812321968111EFCFDF91CF911F91FC
:100770000F91FF90EF9008958881EDCF81E0F5CF44
:10078000DF92EF92FF920F931F93CF93DF93D82EB8
:100790008A01EB017B01E40EF51ECE15DF0559F051
:1007A000D7FE12C0FE0184910E945F032196811141
:1007B000F4CF0FEF1FEFC801DF91CF911F910F9181
:1007C000FF90EF90DF9008958881EECF2FB7F894D7
:1007D00087708093E9009091E800892F807295FFDF
:1007E00004C09091F20080E4891B2FBF089583E03C
:1007F0000E94E60390E008957F928F929F92AF92BD
:10080000BF92CF92DF92EF92FF920F931F93CF93FD
:10081000DF93C82E8B017A0180916301811110C092
:100820008FEF9FEFDF91CF911F910F91FF90EF908E
:10083000DF90CF90BF90AF909F908F907F90089562
:100840008091610180FF05C08091E000826080930B
:10085000E000CE2DDF2DD12C8AEFB82E8C2D8770A5
:10086000982E8C2D8072882E8C2D8074782E9AE391
:10087000A92E209719F4DD2009F452C08C2D0E9476
:10088000E60381110AC0BA94BB2051F261E070E026
:1008900080E090E00E949802ECCF8C171D0611F0CA
:1008A0000CF08C2F9FB7F8949092E9002091E8000B
:1008B00025FD02C09FBFDDCF282F30E0C21BD30B28
:1008C000882029F08150A0F01092F100FBCFF801B0
:1008D000C7FC0AC0815050F041914093F100FACF1B
:1008E00044914093F10031968150D0F7020F131FCD
:1008F000DD2021F0A092E800D12CDCCF8091E8002F
:1009000085FD07C0A092E800DD24D394209791F2E2
:10091000F3CF209779F6772069F2A092E800CACF4A
:100920005D9A84E680936001C7017CCFCF93DF930B
:10093000EC0180910B01882331F083E00E94FC03DD
:100940001816190634F081E090E09B838A8380E0DA
:1009500090E0DF91CF91089590916301992319F16F
:100960003FB7F89487708093E9008091F20090E09F
:10097000481759070CF4CA01282FFB0154E62150EF
:1009800038F0289A50935F014091F1004193F7CFDE
:10099000009739F02091F200211103C02BE620933B
:1009A000E8003FBF08958FEF9FEF08950F931F93C7
:1009B000CF93DF931F92CDB7DEB78C01FC01848506
:1009C000958597FF0FC041E050E0BE016F5F7F4FFC
:1009D00082E00E94AC04019771F4898190E0F801F3
:1009E00095878487F801848595850F90DF91CF9155
:1009F0001F910F9108958FEF9FEFF1CFCF93DF936A
:100A00001F92CDB7DEB7FC018485958597FD08C0A0
:100A10002FEF3FEF358724870F90DF91CF91089517
:100A200041E050E0BE016F5F7F4F82E00E94AC0466
:100A3000019719F4898190E0EFCF8FEF9FEFECCF12
:100A40009FB7F89487708093E9008091F2009FBF70
:100A50000895FC018485958597FD06C082E00E947B
:100A6000200590E00196089582E00E94200590E024
:100A70000895615030F02091F100FC01208301962F
:100A8000F8CF289A84E680935F010895AF92BF92D1
:100A9000CF92DF92EF92FF920F931F93CF93DF934A
:100AA0006C017B018B01040F151FEB015E01AE1879
:100AB000BF08C017D10759F06991D601ED91FC919B
:100AC0000190F081E02DC6010995892B79F7C501C8
:100AD000DF91CF911F910F91FF90EF90DF90CF901A
:100AE000BF90AF9008958091520181110DC082E0B6
:100AF00080934E0184E080934F0110925101109237
:100B0000500181E0809352018EE491E008950F93AB
:100B10001F93CF93DF931F92CDB7DEB782E0898317
:100B200042E450E06CEA70E080E80E94C0030E945A
:100B30007305DC0112960D911C910115110589F0C8
:100B4000D801ED91FC910280F381E02DBE016F5F31
:100B50007F4FC801099597FD04C0F80100851185F4
:100B6000ECCF89810F90DF91CF911F910F91089564
:100B7000FC01538D448D252F30E0842F90E0821BA3
:100B8000930B541710F0CF96089501970895FC0128
:100B9000918D828D981761F0A28DAE0FBF2FB11D80
:100BA0005D968C91928D9F5F9F73928F90E00895D8
:100BB0008FEF9FEF0895FC01918D828D981731F092
:100BC000828DE80FF11D858D90E008958FEF9FEFE6
:100BD0000895FC01918D228D892F90E0805C9F4FBC
:100BE000821B91098F739927089586E094E00E94F3
:100BF000E90521E0892B09F420E0822F089580E0A7
:100C000090E0892B29F00E94F50581110C940000D9
:100C10000895FC01A48DA80FB92FB11DA35ABF4F91
:100C20002C91848D90E001968F739927848FA689EB
:100C3000B7892C93A089B1898C9182748C93938D00
:100C4000848D981306C00288F389E02D80818F7D02
:100C500080830895EF92FF920F931F93CF93DF93BA
:100C6000EC0181E0888F9B8D8C8D981319C0E889E9
:100C7000F989808185FF14C09FB7F894EE89FF89B8
:100C80006083E889F9898081827480839FBF81E0D5
:100C900090E0DF91CF911F910F91FF90EF90089519
:100CA000F62E0B8D10E00F5F1F4F0F731127E02EF4
:100CB0008C8D8E110CC00FB607FCFACFE889F9892C
:100CC000808185FFF5CFCE010E940906F1CFEB8D23
:100CD000EC0FFD2FF11DE35AFF4FF0829FB7F89400
:100CE0000B8FEA89FB8980818062CFCFCF93DF931E
:100CF000EC01888D8823B9F0AA89BB89E889F98934
:100D00008C9185FD03C0808186FD0DC00FB607FC68
:100D1000F7CF8C9185FFF2CF808185FFEDCFCE019B
:100D20000E940906E9CFDF91CF91089590E080E01D
:100D3000089580E008950F931F93CF93DF93CDB76D
:100D4000DEB7C456D1090FB6F894DEBF0FBECDBFD3
:100D5000FC01DB019C919E5F9C939E01295F3F4FAC
:100D60008AE5D9011D928A95E9F788E089838BE0AD
:100D70008A8322E02C8391E09D839E8339E039872A
:100D800064E06A879E879F873A8B44E24B8B9C8BFB
:100D9000A0E0B1E0BE8BAD8B09E010E0188F0F8BA7
:100DA000998F3B8F6C8F2F8F98A353E059A387E0C7
:100DB0008CA34DA39EA3B8A7AFA3A1E4B0E0BAA7AC
:100DC000A9A786E08BA74CA72DA79EA79FA789ABB5
:100DD0004AAB2BAB2CAB2DAB3FAB48AF59AF9AAF67
:100DE0005BAF9CAF2DAF9EAF21963FAF2197229670
:100DF0004FAF229723965FAF239724962FAF249768
:100E000025966FAF259726969FAF269727969FAF7B
:100E1000279728969FAF28972A963FAF2A9745E0B5
:100E20002B964FAF2B972D962FAF2D9760E470E048
:100E30002F967FAF6EAF2F9763964FAF639785E284
:100E400064968FAF649765969FAF659766969FAFE0
:100E5000669767969FAF679768963FAF6897699662
:100E60004FAF69976B962FAF6B976D967FAF6EAF55
:100E70006D97A1964FAFA197A2968FAFA297A39619
:100E80009FAFA397A4969FAFA497A5965FAFA59792
:100E900092819B839B879F5F9A8F9D8F83812C96E6
:100EA0008FAF2C978F5F80686A968FAF6A9744E602
:100EB00050E0BE016F5F7F4F80E00E94C003CC59BD
:100EC000DF4F0FB6F894DEBF0FBECDBFDF91CF91DD
:100ED0001F910F9108950E94CA026093900370932E
:100EE0009103809392039093930381E08093940302
:100EF00008950E94CA0260939603709397038093AB
:100F000098039093990381E080939A0308950E9437
:100F1000CA026093B2037093B3038093B4039093B7
:100F2000B5031092940381E080938F0361E087E022
:100F30000E94A30180E090E0AFE7B3E480937D03DB
:100F400090937E03A0937F03B093800308950E9443
:100F5000CA026093B2037093B3038093B403909377
:100F6000B50310929A0381E08093950361E085E0D8
:100F70000E94A30180E090E0AFE7B3E48093810397
:100F800090938203A0938303B09384030895CF9337
:100F9000DF9300D000D0CDB7DEB789836A834B835F
:100FA0002C838091A60444E050E0BE016F5F7F4F28
:100FB0008F5F0E94FC030F900F900F900F90DF91B6
:100FC000CF91089584E0E9E4F1E0DB0101900D9216
:100FD0008A95E1F784E008951F920F920FB60F9261
:100FE00011242F933F938F939F93AF93BF9380913F
:100FF0009C0390919D03A0919E03B0919F0330911B
:101000009B0323E0230F2D3758F50196A11DB11D39
:1010100020939B0380939C0390939D03A0939E0336
:10102000B0939F038091A0039091A103A091A2038C
:10103000B091A3030196A11DB11D8093A0039093CD
:10104000A103A093A203B093A303BF91AF919F917B
:101050008F913F912F910F900FBE0F901F90189579
:1010600026E8230F0296A11DB11DD2CF1F920F9229
:101070000FB60F9211242F933F934F935F936F936B
:101080007F938F939F93AF93BF93CF93EF93FF93F0
:10109000C091E1008091E100837F8093E100C3FF74
:1010A0000FC01092E90081E08093EB001092EC00F9
:1010B00082E38093ED001092630188E08093F0005A
:1010C000C2FF1BC083E00E9452038091600188230D
:1010D00041F080916001815080936001811101C0D5
:1010E0005D9880915F01882341F080915F0181507C
:1010F00080935F01811101C02898C4FF23C08091B3
:10110000E2008E7E81608093E2008091E1008F7E1C
:101110008093E100809161018E7E80618093610106
:10112000FF91EF91CF91BF91AF919F918F917F915F
:101130006F915F914F913F912F910F900FBE0F9044
:101140001F901895C0FFECCF8091E2008E7E8061E9
:101150008093E2008091E1008E7E8093E100809197
:1011600061018E7E8160DACF1F920F920FB60F92CF
:101170001124CF92DF92EF92FF920F931F932F9340
:101180003F934F935F936F937F938F939F93AF930F
:10119000BF93EF93FF93CF93DF93CDB7DEB76C97F9
:1011A000DEBFCDBF1092E9008091E80083FF25C02B
:1011B00068E0CE0145960E94390582EF8093E800F1
:1011C0008D8987FF39C09091E80090FFFCCF982F60
:1011D000907609F034C19E894F89588D2F89F88CFB
:1011E000911131C0803861F5809162018093F100E6
:1011F0001092F1008EEF8093E8006C960FB6F89491
:10120000DEBF0FBECDBFDF91CF91FF91EF91BF91B8
:10121000AF919F918F917F916F915F914F913F918E
:101220002F911F910F91FF90EF90DF90CF900F9033
:101230000FBE0F901F9018959EEF9093E800C7CFB8
:101240001092F100D5CF913059F48111D3CF4130B4
:10125000510581F6809162018D7F80936201CACF32
:10126000933049F48111C6CF4130510519F6809170
:1012700062018260F2CF953041F48091E80080FFF6
:10128000FCCF20682093E300B5CF963009F0A9C0C9
:101290000B8D1C8D22E01092E90010925D011092DE
:1012A0005C01F2122EC010925B0110925A010E9452
:1012B00087051F8299E09983FA8291E09E8390EAE4
:1012C00098879AEF998720915C0130915D01275FA3
:1012D0003F4F3C832B838D831092E90010925D0178
:1012E00010925C0110935B0100935A0149E050E0B9
:1012F000BE016F5F7F4F80E00E94C0030E948705A0
:1013000079CF10935B0100935A010E947305DC01B1
:1013100012960D911C910115110509F451C1D801C6
:10132000ED91FC910480F581E02DBE016B5E7F4F55
:10133000C8010995009709F03EC1F80100851185A3
:10134000EACFF3E0FF120EC08F89882309F440C072
:10135000823061F440E864E080E191E00E948D0316
:10136000811148CF81E28093EB0047CF813029F48F
:1013700040E86BE084E091E0F1CF833099F70E9480
:101380007305DC011296ED90FC908E010F5F1F4FEC
:101390006801E114F10479F0D701ED91FC91068028
:1013A000F781E02DB801C7010995080F111DF7015C
:1013B000E084F184EECFD8011C92F6010190002068
:1013C000E9F73197BF016C197D0940E0C601C6CF2E
:1013D0006EEE70E0FB01449150E080E80E94C00393
:1013E00009CF973009F4BECF983021F481E0809383
:1013F000F10000CF993009F0FDCE837009F0B2CF33
:10140000EDE0F1E081E031E096E32191222371F0FB
:101410008093E9003093EB00DF0111972C9120932A
:10142000EC009093ED008F5F873079F78EE7809323
:10143000EA001092EA008F8980936301DBCE8B8DE6
:101440009C8D1092E90010925D0110925C019093C6
:101450005B0180935A01898D811192C08E899D898B
:10146000913A49F4813209F07DCF47E050E064E0E1
:1014700071E080E0B3CF913209F074CF833269F428
:101480008F89988DB0E0A0E08093000190930101D6
:10149000A0930201B0930301ADCE803269F4809134
:1014A000E80082FFFCCF67E084E091E00E9439050C
:1014B0008BEF8093E8009ECE823209F09BCE8F891D
:1014C00080930B01EEEFFFE7859194918B3F9C4D4C
:1014D00051F1E0E0F8E08091040190910501A091C4
:1014E0000601B0910701803B9440A105B105F1F4DC
:1014F00080910B0180FD1AC0EE3F8AE0F80789F564
:1015000087E797E7918380838091600080935E01F5
:1015100088E19BE00FB6F894A895809360000FBE19
:101520009093600067CEEEEFFAE0D5CF8081918195
:101530008737974709F05ECEA89580916000886153
:101540008093600080915E0180936000EE3F2AE00E
:10155000F20789F08091FE0A9091FF0A91838083BF
:1015600049CE808191818737980751F29093FF0A85
:101570008093FE0AC5CF1092FF0A1092FE0A3ACE5F
:101580000E947305DC0112960D911C910115110545
:1015900009F4E8CED801ED91FC910190F081E02DA5
:1015A000BE016B5E7F4FC8010995811123CEF80102
:1015B00000851185EBCF181619060CF41BCED2CE80
:1015C000F1E0FF12BECE62EF70E004CF1F920F92E7
:1015D0000FB60F9211242F933F934F935F936F9306
:1015E0007F938F939F93AF93BF93EF93FF9386E087
:1015F00094E00E940906FF91EF91BF91AF919F91F6
:101600008F917F916F915F914F913F912F910F90AB
:101610000FBE0F901F9018951F920F920FB60F924A
:1016200011242F938F939F93EF93FF93E0911604D0
:10163000F09117048081E0911C04F0911D0482FD5B
:101640001BC0908180911F048F5F8F7320912004B5
:10165000821741F0E0911F04F0E0EA5FFB4F958FA5
:1016600080931F04FF91EF919F918F912F910F9085
:101670000FBE0F901F9018958081F4CFCF93DF930A
:101680001092B9031092B80388EE93E0A0E0B0E0A6
:101690008093BA039093BB03A093BC03B093BD03A4
:1016A0002DE131E03093B7032093B6032FEF3FEFE6
:1016B0003093C3032093C2031092090410920804CC
:1016C00080930A0490930B04A0930C04B0930D0430
:1016D0008FE291E090930704809306048DEC90E0F4
:1016E00090931304809312048CEC90E09093150473
:1016F0008093140488EC90E0909317048093160470
:1017000089EC90E090931904809318048AEC90E09F
:1017100090931B0480931A048EEC90E090931D0428
:1017200080931C0410921F04109220041092210434
:101730001092220482E08093A7048093A8048DEA8B
:1017400094E09093AA048093A9041092AC041092A0
:10175000AB0481E491E09093A4048093A30480E817
:101760008093AD0481E88093AE040E947305FC0170
:1017700081819091A704482F490F5527551F483064
:1017800051059CF5A281B381109709F523EA34E055
:101790003383228320812093A5048093A604809123
:1017A000A804820F80832091A904A22FB091AA04DB
:1017B0008A2F821B8917C8F481813D91C82FD0E000
:1017C000C45FDE4F38838F5F8183F2CFD9011896D3
:1017D0002D913C91199721153105C1F723EA34E089
:1017E00019963C932E931897D5CFDF91CF910895FA
:1017F000CF93DF93CDB7DEB7A0970FB6F894DEBFD7
:101800000FBECDBF789484B5826084BD84B58160FD
:1018100084BD85B5826085BD85B5816085BD8091BB
:101820006E00816080936E00109281008091810033
:10183000826080938100809181008160809381002B
:10184000809180008160809380008091910082600F
:1018500080939100809191008160809391008091AC
:1018600090008160809390008091C100846080939B
:10187000C1008091C10082608093C1008091C1004D
:1018800081608093C1008091C30081608093C30018
:101890008091C00082608093C0008091C20081600E
:1018A0008093C20080917A00846080937A00809156
:1018B0007A00826080937A0080917A0081608093C0
:1018C0007A0080917A00806880937A001092630198
:1018D00010926201109261018091D7008160809323
:1018E000D70080EA8093D80089B5806189BD89B529
:1018F000826089BD09B400FEFDCF61E070E080E048
:1019000090E00E9498028091D8008F7C8061809343
:10191000D8008091E000807F8093E0008091E1001A
:101920008E7E8093E1008DE08093E200559A209AAC
:101930005D9828980FB6F894A8958091600088610A
:1019400080936000109260000FBE68EE73E080E04C
:1019500090E00E94980288E19FE00FB6F894A89565
:10196000809360000FBE9093600085E00E94F900B4
:1019700086E00E94F90087E00E94F90088E00E945A
:10198000F9008AE00E94F90083E00E94F90089E0F2
:101990000E94F90086E0E3E1F1E0DE01119601909A
:1019A0000D928A95E1F763E0E62EF12C5E0127E0C7
:1019B000A20EB11C8E010F5F1F4FD801DC900E5F8D
:1019C0001F4F61E08D2D0E94A30168E270E080E06E
:1019D00090E00E94980260E08D2D0E94A30168E2D1
:1019E00070E080E090E00E9498020A151B0529F73C
:1019F000B1E0EB1AF108F1F6E0911604F09117044A
:101A000082E08083E0911204F09113041082E0914F
:101A10001404F09115048FE3808310921E04E0916A
:101A20001A04F0911B0486E08083E0911804F09181
:101A30001904808180618083E0911804F091190479
:101A4000808188608083E0911804F091190480817E
:101A500080688083E0911804F091190480818F7D63
:101A6000808346E0242E312C412C512C5FE7652EDB
:101A700053E4752EA8958091640290916502A0911F
:101A80006602B091670240916802509169026091CC
:101A90006A0270916B02841B950BA60BB70B8F73B8
:101AA0009927AA27BB27892B8A2B8B2B09F45DC08A
:101AB0008091680290916902A0916A02B0916B02D4
:101AC000880F991F880F991FFC01EC59FE4F208148
:101AD00011810281F380409164025091650260910E
:101AE0006602709167028091680290916902A091EC
:101AF0006A02B0916B02481759076A077B07B9F071
:101B00008091680290916902A0916A02B0916B0283
:101B10000196A11DB11D8F739927AA27BB2780931A
:101B2000680290936902A0936A02B0936B02222329
:101B300009F4FBC0312F3F70E32E183F08F492C028
:101B4000612F86E094E00E942A064FE0E41293CFD2
:101B5000107F103909F0F6C4FF2009F4F6C40432EE
:101B600009F094C00E94D60286CF8091A6040E94FC
:101B70002005182FF12C00E020E0882309F4ABCFDA
:101B8000C0906402D0906502E0906602F090670217
:101B9000EFEFCE1ADE0AEE0AFE0AFFE3CF22DD24C3
:101BA000EE24FF248091680290916902A0916A025C
:101BB000B0916B028C159D05AE05BF0509F478CF79
:101BC0008091A6040E942005882309F471CF40E289
:101BD00050E0BE016F5F7F4F8091A6040E94AC046D
:101BE000843091050CF464CFFE0131964091680277
:101BF0005091690260916A0270916B024C155D050B
:101C00006E057F0579F28430910564F2409164029B
:101C1000509165026091660270916702440F551FF2
:101C2000440F551F4C595E4F0191119121913191F3
:101C3000DA010D931D932D933C931397C092640288
:101C4000D0926502E0926602F0926702BFEFCB1A73
:101C5000DB0AEB0AFB0A2FE3C222DD24EE24FF2479
:101C60000497C4CF5FE0351709F472CF612F86E087
:101C700094E00E942A06602F86E094E00E942A06E3
:101C80006F2D86E094E00E942A06F5CE063219F404
:101C90000E94A707F0CE003319F40E941403EBCE84
:101CA000023309F0E8CE0E948707E5CE023309F03F
:101CB000E2CE0E946B07DFCE1A5F1230B0F51092B1
:101CC0007C0310927B031092AD031092AC03409200
:101CD000A8035092A9036092AA037092AB0361E03B
:101CE00086E00E94A30161E088E00E94A3010E94B7
:101CF00073026093AE037093AF038093B00390932D
:101D0000B1030E9473026093A4037093A5038093B0
:101D1000A6039093A7030E94CA026093B203709334
:101D2000B3038093B4039093B50386E094E00E94DC
:101D3000E905181619060CF064C186E094E00E94CB
:101D4000C705182F883F08F455C020E040E0682FF1
:101D50008FE00E94C7078091A6048F5F0E94520304
:101D6000183F09F0A9CF00917B0310917C030F5F0E
:101D70001F4F10937C0300937B030E94CA02609361
:101D8000B2037093B3038093B4039093B503C80177
:101D9000B1010E94D613892BE1F461E086E00E9434
:101DA000A30161E088E00E94A3010E947302609396
:101DB000AE037093AF038093B0039093B1030E947E
:101DC00073026093A4037093A5038093A60390937A
:101DD000A703083111050CF4A8CF4092A803509234
:101DE000A9036092AA037092AB0310927C03109235
:101DF0007B039BCF80917403882309F450C08091AA
:101E00007203909173038F3F910509F058F49C0180
:101E10002F5F3F4F30937303209372038E589D4F73
:101E2000DC011C93173F09F080CFE0907203F09023
:101E3000730310E000E00E151F0550F519821A8299
:101E40001B82FE01319680E093E00E151F0540F4E1
:101E5000D801AE58BD4F2C9120838F5F0F5F1F4F6D
:101E6000915031969111F1CF0E151F0558F0813028
:101E700059F0823059F486E02B814A8169810E94B1
:101E8000C707D9CF84E0F8CF85E0F6CF87E0F4CF5D
:101E900010927303109272031092740346CF103F96
:101EA00061F481E080937403E1E0F0E0F093730368
:101EB000E09372031093720238CF17FF64C0103F93
:101EC00008F453C01092710210936E0281E0809367
:101ED0006D02912F9D7F913F09F040C080936C026D
:101EE00080916C0281110BC085E0163F09F08FE0F4
:101EF00020E040E0612F0E94C70710926D02209100
:101F00006D0280916C0290E001962817190609F085
:101F10000CCF00916E02F090700210916F02802F32
:101F20008F708F3069F4802F807F803909F013C360
:101F3000FF2009F413C3143209F04DC00E94D602E9
:101F4000802F82958F70003F08F083E02F2D412F66
:101F5000602F0E94C70710926D02E7CE123F11F466
:101F600082E0BCCF10926C02BBCF10937102109331
:101F70006E0281E080936D02107E103C09F082E0D9
:101F800080936C02BCCF80916D0281110FC0809153
:101F90007102882359F080936E0291E090936D0254
:101FA000807E803CB1F481E080936C02E0916D0210
:101FB000EE2309F4A4CF80916C028E1708F49FCF12
:101FC00081E08E0F80936D02F0E0E259FD4F1083A7
:101FD00096CF82E0E9CF163219F40E94A707B0CF5E
:101FE000103319F40E941403ABCF123309F0A8CFB9
:101FF0000E948707A5CF123309F0A2CF0E946B077A
:102000009FCF86E00E947A010197B9F40E94730283
:102010000091AE031091AF032091B0033091B10352
:10202000601B710B820B930B613177428105910527
:1020300020F060E086E00E94A30188E00E947A011F
:102040000197B9F40E9473020091A4031091A503B3
:102050002091A6033091A703601B710B820B930B99
:10206000613177428105910520F060E088E00E94AF
:10207000A3010E94CA026B017C0180919A0388230C
:10208000E1F08091960390919703A0919803B0910D
:102090009903A7019601281B390B4A0B5B0BDA0148
:1020A000C9010297A105B10540F060E085E00E94FA
:1020B000A3011092950310929A03809194038823B0
:1020C000E1F08091900390919103A0919203B091DF
:1020D0009303A7019601281B390B4A0B5B0BDA010E
:1020E000C9010297A105B10540F060E087E00E94B8
:1020F000A30110928F031092940380918B0390910F
:102100008C03A0918D03B0918E03C816D906EA0600
:10211000FB0609F495C0C0928B03D0928C03E09229
:102120008D03F0928E038091B2039091B303A0913E
:10213000B403B091B503A7019601281B390B4A0BD4
:102140005B0BDA01C9010091950310918F03893867
:102150009341A105B10508F0F7C0109287031092D2
:1021600088031092890310928A03109286031092BA
:102170008503C090A803D090A903E090AA03F09033
:10218000AB0320E030E0A901C701B6010E94D113E2
:10219000181684F421EB33E14BEF5FE3C701B6017E
:1021A0000E94B4126093A8037093A9038093AA03BA
:1021B0009093AB03011121C0C0908103D0908203A2
:1021C000E0908303F090840320E030E0A901C70190
:1021D000B6010E94D113181684F421EB33E14BEFC2
:1021E0005FE3C701B6010E94B4126093810370934C
:1021F00082038093830390938403111121C0C090C4
:102200007D03D0907E03E0907F03F090800320E078
:1022100030E0A901C701B6010E94D113181684F459
:1022200021EB33E14BEF5FE3C701B6010E94B4122B
:1022300060937D0370937E0380937F03909380036C
:10224000C090A803D090A903E090AA03F090AB033C
:1022500020E030E0A901C701B6010E94211370E01F
:1022600060E087FD10C020E030E04FE753E4C70195
:10227000B6010E94D1136FEF70E0181624F0C70169
:10228000B6010E9426138AE00E94D101C09081030A
:10229000D0908203E0908303F090840320E030E04C
:1022A000A901C701B6010E94211370E060E087FD1B
:1022B00010C020E030E04FE753E4C701B6010E94B0
:1022C000D1136FEF70E0181624F0C701B6010E9419
:1022D000261383E00E94D101C0907D03D0907E033D
:1022E000E0907F03F090800320E030E0A901C70177
:1022F000B6010E94211370E060E087FD10C020E06D
:1023000030E04FE753E4C701B6010E94D1136FEFED
:1023100070E0181624F0C701B6010E94261389E068
:102320000E94D1018091A6048F5F0E94520380E039
:1023300090E0892B09F49ECB0E94F505882309F4CF
:1023400099CB0E94000096CB10927C0310927B03E5
:102350001092AD031092AC03809185039091860397
:10236000009709F076C020E030E040E85FE360913C
:102370008703709188038091890390918A030E945A
:10238000B5126B017C0120E030E04FE753E40E947E
:10239000D11387FF4FC0C0928703D0928803E09289
:1023A0008903F0928A03209175033091760380E0CF
:1023B00090E0DC012115310541F480918703909173
:1023C0008803A0918903B0918A038093A803909316
:1023D000A903A093AA03B093AB032130310509F000
:1023E0009BC001119FC08091870390918803A091A9
:1023F0008903B0918A038093810390938203A09311
:102400008303B09384032230310509F090C0111189
:1024100094C08091870390918803A0918903B09123
:102420008A0380937D0390937E03A0937F03B093F0
:10243000800306CF409287035092880360928903FD
:1024400070928A0341E050E05093860340938503E5
:10245000AACF81309105B9F52AE939E949E95EE366
:1024600060918703709188038091890390918A031A
:102470000E94B4124B015C0120E030E0A9010E94EF
:10248000211318164CF48092870390928803A0922F
:102490008903B0928A0387CF109287031092880332
:1024A0001092890310928A0382E090E09093860351
:1024B00080938503C0927703D0927803E0927903EA
:1024C000F0927A0370CF029709F06DCF8091770375
:1024D00090917803A0917903B0917A03C81AD90A30
:1024E000EA0AFB0A5CEDC51655E0D506E104F104E5
:1024F00008F459CF8091750390917603109286036A
:1025000010928503019663E070E00E94D6139093C9
:1025100076038093750347CF80E090E0DC010023D1
:1025200009F469CF80E090E0AFE7B3E464CF80E0E6
:1025300090E0DC01112309F474CF80E090E0AFE774
:10254000B3E46FCF103809F096CA063209F0AECB6B
:102550000E94790790CA803809F0F2CC163209F04F
:102560004ACD0E947907ECCC5058BB27AA270E947D
:10257000CC120C9497130E94891338F00E94901388
:1025800020F039F49F3F19F426F40C9486130EF4CE
:10259000E095E7FB0C948013E92F0E94A81358F3F1
:1025A000BA17620773078407950720F079F4A6F538
:1025B0000C94CA130EF4E0950B2EBA2FA02D0B012C
:1025C000B90190010C01CA01A0011124FF27591B78
:1025D00099F0593F50F4503E68F11A16F040A22F7E
:1025E000232F342F4427585FF3CF469537952795EF
:1025F000A795F0405395C9F77EF41F16BA0B620BEE
:10260000730B840BBAF09150A1F0FF0FBB1F661F34
:10261000771F881FC2F70EC0BA0F621F731F841F77
:1026200048F4879577956795B795F7959E3F08F09D
:10263000B0CF9395880F08F09927EE0F979587955F
:1026400008950E945C1308F481E008950E942D1300
:102650006894B1110C94CB1308950E94B01388F0C4
:102660009F5798F0B92F9927B751B0F0E1F0660F56
:10267000771F881F991F1AF0BA95C9F714C0B13097
:1026800091F00E94CA13B1E008950C94CA13672F09
:10269000782F8827B85F39F0B93FCCF386957795C6
:1026A0006795B395D9F73EF49095809570956195AF
:1026B0007F4F8F4F9F4F0895990F0008550FAA0B1A
:1026C000E0E8FEEF16161706E807F907C0F0121645
:1026D0001306E407F50798F0621B730B840B950B48
:1026E00039F40A2661F0232B242B252B21F408959D
:1026F0000A2609F4A140A6958FEF811D811D08953A
:1027000097F99F6780E870E060E008959FEF80ECA4
:10271000089500240A941616170618060906089547
:1027200000240A9412161306140605060895092EAD
:102730000394000C11F4882352F0BB0F40F4BF2B1C
:1027400011F460FF04C06F5F7F4F8F4F9F4F08955C
:1027500057FD9058440F551F59F05F3F71F0479552
:10276000880F97FB991F61F09F3F79F08795089537
:10277000121613061406551FF2CF4695F1DF08C056
:10278000161617061806991FF1CF86957105610573
:1027900008940895E894BB2766277727CB0197F91B
:1027A00008950E945C1308F48FEF089597FB072E9D
:1027B00016F4009407D077FD09D00E94F01307FCAF
:1027C00005D03EF4909581959F4F08957095619541
:1027D0007F4F0895EE0FFF1F0590F491E02D0994AF
:1027E000AA1BBB1B51E107C0AA1FBB1FA617B70737
:1027F00010F0A61BB70B881F991F5A95A9F7809553
:0C2800009095BC01CD010895F894FFCF25
:10280C00FFFFFFFF00E100000000000000C180811D
:10281C000000000A000300090000000000180196E7
:10282C0004F7035C032905FE04D604000000002A0B
:10283C00064605B8057606E905C705DB0500000068
:0E284C000099069B069606E2074D4944490096
:00000001FF
